{
  "contractName": "Token",
  "abi": [
    {
      "inputs": [
        {
          "internalType": "string",
          "name": "_Name",
          "type": "string"
        },
        {
          "internalType": "string",
          "name": "_Symbol",
          "type": "string"
        },
        {
          "internalType": "uint8",
          "name": "_Decimals",
          "type": "uint8"
        },
        {
          "internalType": "uint256",
          "name": "_Cap",
          "type": "uint256"
        },
        {
          "internalType": "uint256",
          "name": "_TotalSupply",
          "type": "uint256"
        }
      ],
      "payable": false,
      "stateMutability": "nonpayable",
      "type": "constructor"
    },
    {
      "anonymous": false,
      "inputs": [
        {
          "indexed": true,
          "internalType": "address",
          "name": "from",
          "type": "address"
        },
        {
          "indexed": true,
          "internalType": "address",
          "name": "to",
          "type": "address"
        },
        {
          "indexed": false,
          "internalType": "uint256",
          "name": "value",
          "type": "uint256"
        }
      ],
      "name": "Transfer",
      "type": "event"
    },
    {
      "anonymous": false,
      "inputs": [
        {
          "indexed": true,
          "internalType": "address",
          "name": "owner",
          "type": "address"
        },
        {
          "indexed": true,
          "internalType": "address",
          "name": "spender",
          "type": "address"
        },
        {
          "indexed": false,
          "internalType": "uint256",
          "name": "value",
          "type": "uint256"
        }
      ],
      "name": "approval",
      "type": "event"
    },
    {
      "anonymous": false,
      "inputs": [
        {
          "indexed": true,
          "internalType": "address",
          "name": "previousOwner",
          "type": "address"
        },
        {
          "indexed": true,
          "internalType": "address",
          "name": "newOwner",
          "type": "address"
        }
      ],
      "name": "ownershipTransferred",
      "type": "event"
    },
    {
      "constant": true,
      "inputs": [],
      "name": "owner",
      "outputs": [
        {
          "internalType": "address",
          "name": "",
          "type": "address"
        }
      ],
      "payable": false,
      "stateMutability": "view",
      "type": "function"
    },
    {
      "constant": false,
      "inputs": [],
      "name": "renounceOwnership",
      "outputs": [],
      "payable": false,
      "stateMutability": "nonpayable",
      "type": "function"
    },
    {
      "constant": false,
      "inputs": [
        {
          "internalType": "address",
          "name": "newOwner",
          "type": "address"
        }
      ],
      "name": "transferOwnership",
      "outputs": [],
      "payable": false,
      "stateMutability": "nonpayable",
      "type": "function"
    },
    {
      "constant": true,
      "inputs": [],
      "name": "totalSupply",
      "outputs": [
        {
          "internalType": "uint256",
          "name": "",
          "type": "uint256"
        }
      ],
      "payable": false,
      "stateMutability": "view",
      "type": "function"
    },
    {
      "constant": true,
      "inputs": [],
      "name": "decimals",
      "outputs": [
        {
          "internalType": "uint256",
          "name": "",
          "type": "uint256"
        }
      ],
      "payable": false,
      "stateMutability": "view",
      "type": "function"
    },
    {
      "constant": true,
      "inputs": [],
      "name": "name",
      "outputs": [
        {
          "internalType": "string",
          "name": "",
          "type": "string"
        }
      ],
      "payable": false,
      "stateMutability": "view",
      "type": "function"
    },
    {
      "constant": true,
      "inputs": [],
      "name": "symbol",
      "outputs": [
        {
          "internalType": "string",
          "name": "",
          "type": "string"
        }
      ],
      "payable": false,
      "stateMutability": "view",
      "type": "function"
    },
    {
      "constant": true,
      "inputs": [],
      "name": "getOwner",
      "outputs": [
        {
          "internalType": "address",
          "name": "",
          "type": "address"
        }
      ],
      "payable": false,
      "stateMutability": "view",
      "type": "function"
    },
    {
      "constant": true,
      "inputs": [
        {
          "internalType": "address",
          "name": "account",
          "type": "address"
        }
      ],
      "name": "balanceOf",
      "outputs": [
        {
          "internalType": "uint256",
          "name": "",
          "type": "uint256"
        }
      ],
      "payable": false,
      "stateMutability": "view",
      "type": "function"
    },
    {
      "constant": false,
      "inputs": [
        {
          "internalType": "address",
          "name": "receipt",
          "type": "address"
        },
        {
          "internalType": "uint256",
          "name": "amount",
          "type": "uint256"
        }
      ],
      "name": "transfer",
      "outputs": [
        {
          "internalType": "bool",
          "name": "",
          "type": "bool"
        }
      ],
      "payable": false,
      "stateMutability": "nonpayable",
      "type": "function"
    },
    {
      "constant": false,
      "inputs": [
        {
          "internalType": "address",
          "name": "spender",
          "type": "address"
        },
        {
          "internalType": "uint256",
          "name": "amount",
          "type": "uint256"
        }
      ],
      "name": "approve",
      "outputs": [
        {
          "internalType": "bool",
          "name": "",
          "type": "bool"
        }
      ],
      "payable": false,
      "stateMutability": "nonpayable",
      "type": "function"
    },
    {
      "constant": true,
      "inputs": [
        {
          "internalType": "address",
          "name": "owner",
          "type": "address"
        },
        {
          "internalType": "address",
          "name": "spender",
          "type": "address"
        }
      ],
      "name": "allowance",
      "outputs": [
        {
          "internalType": "uint256",
          "name": "",
          "type": "uint256"
        }
      ],
      "payable": false,
      "stateMutability": "view",
      "type": "function"
    },
    {
      "constant": false,
      "inputs": [
        {
          "internalType": "address",
          "name": "sender",
          "type": "address"
        },
        {
          "internalType": "address",
          "name": "receipt",
          "type": "address"
        },
        {
          "internalType": "uint256",
          "name": "amount",
          "type": "uint256"
        }
      ],
      "name": "transferFrom",
      "outputs": [
        {
          "internalType": "bool",
          "name": "",
          "type": "bool"
        }
      ],
      "payable": false,
      "stateMutability": "nonpayable",
      "type": "function"
    },
    {
      "constant": false,
      "inputs": [
        {
          "internalType": "address",
          "name": "spender",
          "type": "address"
        },
        {
          "internalType": "uint256",
          "name": "addValue",
          "type": "uint256"
        }
      ],
      "name": "increaseAllowance",
      "outputs": [
        {
          "internalType": "bool",
          "name": "",
          "type": "bool"
        }
      ],
      "payable": false,
      "stateMutability": "nonpayable",
      "type": "function"
    },
    {
      "constant": false,
      "inputs": [
        {
          "internalType": "address",
          "name": "spender",
          "type": "address"
        },
        {
          "internalType": "uint256",
          "name": "subtractValue",
          "type": "uint256"
        }
      ],
      "name": "decreaseAllowance",
      "outputs": [
        {
          "internalType": "bool",
          "name": "",
          "type": "bool"
        }
      ],
      "payable": false,
      "stateMutability": "nonpayable",
      "type": "function"
    },
    {
      "constant": false,
      "inputs": [
        {
          "internalType": "uint256",
          "name": "amount",
          "type": "uint256"
        }
      ],
      "name": "mint",
      "outputs": [
        {
          "internalType": "bool",
          "name": "",
          "type": "bool"
        }
      ],
      "payable": false,
      "stateMutability": "nonpayable",
      "type": "function"
    },
    {
      "constant": false,
      "inputs": [
        {
          "internalType": "uint256",
          "name": "amount",
          "type": "uint256"
        }
      ],
      "name": "burn",
      "outputs": [
        {
          "internalType": "bool",
          "name": "",
          "type": "bool"
        }
      ],
      "payable": false,
      "stateMutability": "nonpayable",
      "type": "function"
    },
    {
      "constant": false,
      "inputs": [
        {
          "internalType": "address",
          "name": "account",
          "type": "address"
        },
        {
          "internalType": "uint256",
          "name": "amount",
          "type": "uint256"
        }
      ],
      "name": "burnFrom",
      "outputs": [],
      "payable": false,
      "stateMutability": "nonpayable",
      "type": "function"
    },
    {
      "constant": false,
      "inputs": [
        {
          "internalType": "uint256",
          "name": "amount",
          "type": "uint256"
        }
      ],
      "name": "mintCap",
      "outputs": [],
      "payable": false,
      "stateMutability": "nonpayable",
      "type": "function"
    }
  ],
  "bytecode": "0x60806040523480156200001157600080fd5b5060405162000f1838038062000f18833981810160405260a08110156200003757600080fd5b81019080805160405193929190846401000000008211156200005857600080fd5b9083019060208201858111156200006e57600080fd5b82516401000000008111828201881017156200008957600080fd5b82525081516020918201929091019080838360005b83811015620000b85781810151838201526020016200009e565b50505050905090810190601f168015620000e65780820380516001836020036101000a031916815260200191505b50604052602001805160405193929190846401000000008211156200010a57600080fd5b9083019060208201858111156200012057600080fd5b82516401000000008111828201881017156200013b57600080fd5b82525081516020918201929091019080838360005b838110156200016a57818101518382015260200162000150565b50505050905090810190601f168015620001985780820380516001836020036101000a031916815260200191505b5060409081526020820151908201516060909201519093509091506000620001c86001600160e01b03620002c616565b600080546001600160a01b0319166001600160a01b0383169081178255604051929350917f7699c77f2404f9b6bbd003861bb4af8ae70b205e19e73d7ec7fe4590db59a6b7908290a350845162000227906006906020880190620002cb565b5083516200023d906007906020870190620002cb565b506005805460ff191660ff851617905560048290556003819055600062000263620002c6565b6003546001600160a01b0382166000818152600160209081526040808320859055805194855251949550919390927fddf252ad1be2c89b69c2b068fc378daa952ba7f163c4a11628f55a4df523b3ef92908290030190a35050505050506200036d565b335b90565b828054600181600116156101000203166002900490600052602060002090601f016020900481019282601f106200030e57805160ff19168380011785556200033e565b828001600101855582156200033e579182015b828111156200033e57825182559160200191906001019062000321565b506200034c92915062000350565b5090565b620002c891905b808211156200034c576000815560010162000357565b610b9b806200037d6000396000f3fe608060405234801561001057600080fd5b50600436106101215760003560e01c8063715018a6116100ad578063a0712d6811610071578063a0712d6814610331578063a457c2d71461034e578063a9059cbb1461037a578063dd62ed3e146103a6578063f2fde38b146103d457610121565b8063715018a6146102c957806379cc6790146102d1578063893d20e8146102fd5780638da5cb5b1461032157806395d89b411461032957610121565b8063313ce567116100f4578063313ce56714610233578063395093511461023b5780633d01720c1461026757806342966c681461028657806370a08231146102a357610121565b806306fdde0314610126578063095ea7b3146101a357806318160ddd146101e357806323b872dd146101fd575b600080fd5b61012e6103fa565b6040805160208082528351818301528351919283929083019185019080838360005b83811015610168578181015183820152602001610150565b50505050905090810190601f1680156101955780820380516001836020036101000a031916815260200191505b509250505060405180910390f35b6101cf600480360360408110156101b957600080fd5b506001600160a01b038135169060200135610490565b604080519115158252519081900360200190f35b6101eb610498565b60408051918252519081900360200190f35b6101cf6004803603606081101561021357600080fd5b506001600160a01b0381358116916020810135909116906040013561049e565b6101eb610511565b6101cf6004803603604081101561025157600080fd5b506001600160a01b03813516906020013561051a565b6102846004803603602081101561027d57600080fd5b5035610570565b005b6101cf6004803603602081101561029c57600080fd5b50356105b5565b6101eb600480360360208110156102b957600080fd5b50356001600160a01b03166105f2565b61028461060d565b610284600480360360408110156102e757600080fd5b506001600160a01b038135169060200135610679565b610305610700565b604080516001600160a01b039092168252519081900360200190f35b61030561070f565b61012e61071e565b6101cf6004803603602081101561034757600080fd5b503561077f565b6101cf6004803603604081101561036457600080fd5b506001600160a01b0381351690602001356107b4565b6101cf6004803603604081101561039057600080fd5b506001600160a01b038135169060200135610801565b6101eb600480360360408110156103bc57600080fd5b506001600160a01b0381358116916020013516610815565b610284600480360360208110156103ea57600080fd5b50356001600160a01b0316610840565b60068054604080516020601f60026000196101006001881615020190951694909404938401819004810282018101909252828152606093909290918301828280156104865780601f1061045b57610100808354040283529160200191610486565b820191906000526020600020905b81548152906001019060200180831161046957829003601f168201915b5050505050905090565b600092915050565b60035490565b60006104ab84848461086b565b610507846104b761093f565b6001600160a01b0387166000908152600260205260408120610502916104db61093f565b6001600160a01b03166001600160a01b031681526020019081526020016000205486610943565b610958565b5060019392505050565b60055460ff1690565b600061056761052761093f565b846105026002600061053761093f565b6001600160a01b03908116825260208083019390935260409182016000908120918b1681529252902054866109e0565b50600192915050565b61057861093f565b6000546001600160a01b0390811691161461059257600080fd5b6000600454116105a157600080fd5b6105b26105ac61093f565b826109f9565b50565b60006105bf61093f565b6000546001600160a01b039081169116146105d957600080fd5b6105ea6105e461093f565b83610a16565b506001919050565b6001600160a01b031660009081526001602052604090205490565b61061561093f565b6000546001600160a01b0390811691161461062f57600080fd5b600080546040516001600160a01b03909116907f7699c77f2404f9b6bbd003861bb4af8ae70b205e19e73d7ec7fe4590db59a6b7908390a3600080546001600160a01b0319169055565b61068161093f565b6000546001600160a01b0390811691161461069b57600080fd5b6106a58282610a16565b6106fc826106b161093f565b6001600160a01b0385166000908152600260205260408120610502916106d561093f565b6001600160a01b03166001600160a01b031681526020019081526020016000205485610943565b5050565b600061070a61093f565b905090565b6000546001600160a01b031690565b60078054604080516020601f60026000196101006001881615020190951694909404938401819004810282018101909252828152606093909290918301828280156104865780601f1061045b57610100808354040283529160200191610486565b600061078961093f565b6000546001600160a01b039081169116146107a357600080fd5b6105ea6107ae61093f565b83610ab3565b60006105676107c161093f565b84610502600260006107d161093f565b6001600160a01b03908116825260208083019390935260409182016000908120918b168152925290205486610943565b600061056761080e61093f565b848461086b565b6001600160a01b03918216600090815260026020908152604080832093909416825291909152205490565b61084861093f565b6000546001600160a01b0390811691161461086257600080fd5b6105b281610af8565b6001600160a01b03831661087e57600080fd5b6001600160a01b03821661089157600080fd5b6001600160a01b0383166000908152600160205260409020546108b49082610943565b6001600160a01b0380851660009081526001602052604080822093909355908416815220546108e390826109e0565b6001600160a01b0380841660008181526001602090815260409182902094909455805185815290519193928716927fddf252ad1be2c89b69c2b068fc378daa952ba7f163c4a11628f55a4df523b3ef92918290030190a3505050565b3390565b60008282111561095257600080fd5b50900390565b6001600160a01b03831661096b57600080fd5b6001600160a01b03821661097e57600080fd5b6001600160a01b03808416600081815260026020908152604080832094871680845294825291829020859055815185815291517f5c52a5f2b86fd16be577188b5a83ef1165faddc00b137b10285f16162e17792a9281900390910190a3505050565b6000828201838110156109f257600080fd5b9392505050565b60045481600354011115610a0c57600080fd5b6106fc8282610ab3565b6001600160a01b038216610a2957600080fd5b610a3560035482610943565b6003556001600160a01b038216600090815260016020526040902054610a5b9082610943565b6001600160a01b03831660008181526001602090815260408083209490945583518581529351929391927fddf252ad1be2c89b69c2b068fc378daa952ba7f163c4a11628f55a4df523b3ef9281900390910190a35050565b6001600160a01b038216610ac657600080fd5b610ad2600354826109e0565b6003556001600160a01b038216600090815260016020526040902054610a5b90826109e0565b6001600160a01b038116610b0b57600080fd5b600080546040516001600160a01b03808516939216917f7699c77f2404f9b6bbd003861bb4af8ae70b205e19e73d7ec7fe4590db59a6b791a3600080546001600160a01b0319166001600160a01b039290921691909117905556fea265627a7a723158207b49d651ddf5dae1806379569cfdb2d14bb88af763c33c49dcf391735c6a5ebc64736f6c63430005100032",
  "source": "// SPDX-License-Identifier: MIT\r\npragma solidity >=0.4.22 <0.9.0;\r\n\r\nimport \"./safeMath.sol\";\r\nimport \"./IToken.sol\";\r\nimport \"./Ownable.sol\";\r\nimport \"./context.sol\";\r\n\r\ncontract Token is IToken, context, ownable {\r\n\r\n    mapping (address => uint256) private _balances;\r\n    mapping (address => mapping(address => uint256)) private _allowance;\r\n\r\n    uint256 private _totalSupply;\r\n    uint256 private _cap;\r\n    uint8 private _decimals;\r\n    string private _name;\r\n    string private _symbol;\r\n\r\n    constructor(string memory _Name, string memory _Symbol, uint8 _Decimals, uint256 _Cap, uint256 _TotalSupply) public {\r\n        _name = _Name;\r\n        _symbol = _Symbol;\r\n        _decimals = _Decimals;\r\n        _cap = _Cap;\r\n        _totalSupply = _TotalSupply;\r\n        address msgSender = _msgSender();\r\n        _balances[msgSender] = _totalSupply;\r\n        emit Transfer (address(0), msgSender, _totalSupply);\r\n\r\n\r\n    }\r\n\r\n    function totalSupply() external view returns (uint256){\r\n        return _totalSupply;\r\n    }\r\n\r\n    function decimals() external view returns (uint256){\r\n        return _decimals;\r\n    }\r\n\r\n    function name() external view returns (string memory){\r\n        return _name;\r\n    }\r\n\r\n    function symbol() external view returns (string memory){\r\n        return _symbol;\r\n    }\r\n\r\n    function getOwner() external view returns (address){\r\n        return _msgSender();\r\n    }\r\n    \r\n    function balanceOf (address account) external view returns (uint256){\r\n        return _balances[account];\r\n    }\r\n\r\n    function _transfer (address sender, address receipt, uint256 amount)internal {\r\n        require(sender != address(0));\r\n        require(receipt != address(0));\r\n        _balances[sender] = safeMath.subtract(_balances[sender], amount);\r\n        _balances[receipt] = safeMath.add(_balances[receipt], amount);\r\n        emit Transfer(sender, receipt, amount);\r\n    }\r\n\r\n    function transfer (address receipt, uint256 amount) external returns (bool){\r\n        _transfer(_msgSender(), receipt, amount);\r\n        return true;\r\n    }\r\n \r\n    function _approve (address owner, address spender, uint256 amount) internal {\r\n        require(owner != address(0));\r\n        require(spender != address(0));\r\n        _allowance[owner][spender] = amount;\r\n        emit approval(owner, spender, amount);\r\n    }\r\n\r\n    function approve (address spender, uint256 amount) external returns (bool){\r\n\r\n    }\r\n\r\n     function allowance (address owner, address spender) external view returns (uint256){\r\n        return _allowance[owner][spender];\r\n    }\r\n\r\n    function transferFrom (address sender, address receipt, uint256 amount) external returns (bool){\r\n        _transfer(sender, receipt, amount);\r\n        _approve(sender, _msgSender(), safeMath.subtract(_allowance[sender][_msgSender()], amount));\r\n        return true;\r\n    }\r\n\r\n    function increaseAllowance(address spender, uint256 addValue) public returns (bool) {\r\n        _approve(_msgSender(), spender, safeMath.add(_allowance[_msgSender()][spender], addValue));\r\n        return true;\r\n    }\r\n\r\n    function decreaseAllowance(address spender, uint256 subtractValue) public returns (bool) {\r\n        _approve(_msgSender(), spender, safeMath.subtract(_allowance[_msgSender()][spender], subtractValue));\r\n        return true;\r\n    }\r\n\r\n    function _mint(address account, uint256 amount) internal {\r\n        require(account != address(0));\r\n        _totalSupply = safeMath.add(_totalSupply, amount);\r\n        _balances[account] = safeMath.add(_balances[account], amount);\r\n        emit Transfer (address(0), account, amount);\r\n    }\r\n\r\n    function mint(uint256 amount) public onlyOwner returns (bool) {\r\n        _mint(_msgSender(), amount);\r\n        return true;   \r\n    }\r\n\r\n    function _burn(address account, uint256 amount) internal {\r\n        require(account != address(0));\r\n        _totalSupply = safeMath.subtract(_totalSupply, amount);\r\n        _balances[account] = safeMath.subtract(_balances[account], amount);\r\n        emit Transfer (address(0), account, amount);\r\n    }\r\n\r\n    function burn(uint256 amount) public onlyOwner returns (bool) {\r\n        _burn(_msgSender(), amount);\r\n        return true;\r\n    }\r\n\r\n    function burnFrom(address account, uint256 amount) public onlyOwner {\r\n        _burn(account, amount);\r\n        _approve(account, _msgSender(), safeMath.subtract(_allowance[account][_msgSender()], amount));\r\n    }\r\n    \r\n    function _mintCap (address account, uint256 amount) internal {\r\n        require(_totalSupply + amount <= _cap);\r\n        _mint(account, amount);\r\n\r\n    }\r\n\r\n    function mintCap(uint256 amount) public onlyOwner{\r\n        require(_cap > 0);\r\n        _mintCap(_msgSender(), amount);\r\n    }\r\n} ",
  "sourcePath": "C:\\Users\\Sina\\Desktop\\Code\\Token\\Contract\\contracts\\Token.sol",
  "compiler": {
    "name": "solc",
    "version": "0.5.16+commit.9c3226ce.Emscripten.clang"
  },
  "schemaVersion": "3.4.11",
  "updatedAt": "2022-12-13T12:50:25.030Z",
  "networkType": "ethereum",
  "devdoc": {
    "methods": {}
  },
  "userdoc": {
    "methods": {}
  }
}